:020000040000fa
:080000000002040000000000f2
:020000040000fa
:100400004f8020000e7f22000e01880000000000b7
:10041000000020000000e000020032000001200087
:10042000200288000c000700403820000100200056
:1004300011000700000020000000e0000200320070
:1004400000000200000000006e0302000000000037
:100450000040da000000fe004440a9000000200037
:100460000000e0000300320000002000a00188002e
:100470004440a80000000600910188008000780038
:100480000000eb0015003700e280400032a0b4000d
:100490009101ba00e280400032a0b4009102ba009b
:1004a000e280400032a0b4000002eb00472bde00e7
:1004b000f507b200602ce10004003a000059eb009f
:1004c0008301e900fdff3e00040037006128e100e0
:1004d000010032000082eb00040007001101ba00a5
:1004e0000200e000e8ff3a00000006003159ba00bf
:1004f0008301e9000c0032002159ba008301e900b0
:10050000080032000400e00003003a00e2804000ee
:1005100032a0b400f5ff370011d9ba008301e90019
:10052000faff3a008100e800e180400032a0b40008
:0c053000000006000040da000000fe00a1
:020000040000fa
:020000040001f9
:0457f8009ff8000016
:020000040000fa
:020000040001f9
:0457fc007f3f0000eb
:020000040000fa
:100008009a0200009a0200009a0200009a02000078
:100018009a0200009a0200009a0200009a02000068
:100028009a0200009a0200009a020000cc02000026
:100038009a0200009a0200009a0200009a02000048
:100048009a0200009a0200009a0200009a02000038
:100058009a0200009a0200009a0200009a02000028
:100068009a0200009a0200009a0200009a02000018
:100078009a0200009a0200009a0200009a02000008
:100088009a0200009a0200009a0200009a020000f8
:100098009a0200009a0200009a0200009a020000e8
:1000a8009a0200009a0200009a0200009a020000d8
:1000b8009a0200009a0200009a0200009a020000c8
:1000c8009a0200009a0200009a0200009a020000b8
:1000d8009a0200009a0200009a0200009a020000a8
:1000e8009a0200009a0200009a0200009a02000098
:1000f8009a0200009a0200009a0200009a02000088
:100108009a0200009a0200009a0200009a02000077
:100118009a0200009a0200009a0200009a02000067
:100128009a0200009a0200009a0200009a02000057
:100138009a0200009a0200009a0200009a02000047
:100148009a0200009a0200009a0200009a02000037
:100158009a0200009a0200009a0200009a02000027
:100168009a0200009a0200009a0200009a02000017
:100178009a0200009a0200009a0200009a02000007
:100188009a0200009a0200009a0200009a020000f7
:100198009a0200009a0200009a0200009a020000e7
:1001a8009a0200009a0200009a0200009a020000d7
:1001b8009a0200009a0200009a0200009a020000c7
:1001c8009a0200009a0200009a0200009a020000b7
:1001d8009a0200009a0200009a0200009a020000a7
:1001e8009a0200009a0200009a0200009a02000097
:0801f8009a0200009a020000c7
:020000040000fa
:100208009a0200009a0200009a0200009a02000076
:100218009a0200009a0200009a0200009a02000066
:100228009a0200009a0200009a020000cc02000024
:100238009a0200009a0200009a0200009a02000046
:100248009a0200009a0200009a0200009a02000036
:100258009a0200009a0200009a0200009a02000026
:100268009a0200009a0200009a0200009a02000016
:100278009a0200009a0200009a0200009a02000006
:100288009a0200009a0200009a0200009a020000f6
:100298009a0200009a0200009a0200009a020000e6
:1002a8009a0200009a0200009a0200009a020000d6
:1002b8009a0200009a0200009a0200009a020000c6
:1002c8009a0200009a0200009a0200009a020000b6
:1002d8009a0200009a0200009a0200009a020000a6
:1002e8009a0200009a0200009a0200009a02000096
:1002f8009a0200009a0200009a0200009a02000086
:100308009a0200009a0200009a0200009a02000075
:100318009a0200009a0200009a0200009a02000065
:100328009a0200009a0200009a0200009a02000055
:100338009a0200009a0200009a0200009a02000045
:100348009a0200009a0200009a0200009a02000035
:100358009a0200009a0200009a0200009a02000025
:100368009a0200009a0200009a0200009a02000015
:100378009a0200009a0200009a0200009a02000005
:100388009a0200009a0200009a0200009a020000f5
:100398009a0200009a0200009a0200009a020000e5
:1003a8009a0200009a0200009a0200009a020000d5
:1003b8009a0200009a0200009a0200009a020000c5
:1003c8009a0200009a0200009a0200009a020000b5
:1003d8009a0200009a0200009a0200009a020000a5
:1003e8009a0200009a0200009a0200009a02000095
:0803f8009a0200009a020000c5
:020000040000fa
:10053c000000fa0005e1a90005a1a9000441a900e9
:10054c0004c1a9000421a900240880000440a000d3
:10055c000450a100240888001427200014088800e7
:10056c002405800004c0a00004d0a10004e0a10078
:10057c00240588000002eb00040888008460a900b0
:10058c009460a8000080fa00000006003600f80015
:10059c00809fbe00829fbe00849fbe00869fbe00cf
:1005ac003400f80000002000a00188000000fa00d0
:1005bc008460a900080007000080fa003400f900ec
:1005cc004f03be004f02be004f01be004f00be00e5
:1005dc003600f900004006000000fa0004408000dc
:1005ec000402e80004408800144080000402e80083
:1005fc001440880004408000e50f520002003e00c9
:10060c00cd42a8000a00370004408000e50f5200dc
:10061c000500360004408000ea0f520002003e0044
:10062c00cd42a900020037000002eb000440880014
:10063c0014408000e30f520002003e00cd62a8007f
:10064c000a00370004408000e30f5200050036001a
:10065c0004408000ea0f520002003e00cd62a90067
:10066c00020037000002eb00144088000080fa0002
:10067c00000006000000fa00143a800004c0a1003b
:10068c0004d0a10004e0a100143a880042a7a900fc
:10069c004227a900143a80004267a900453a80001d
:1006ac0004fc2f0004826200443a880081e0a90017
:1006bc00140280000450a1000460a1000470a10089
:1006cc00140288004460a9000080fa0000000600b3
:1006dc000000fa00e7ff070095ff07000200070083
:1006ec0005e1a800ffff37000000fa00c942a9008d
:0c06fc00c962a9000080fa00000006009e
:020000040000fa
:1007080000080000040000000000000000000000d5
:00000001FF
