:020000040000fa
:080000000002040000000000f2
:020000040000fa
:10040000af8620000e7f22000e0188000000000051
:10041000000020000000e000020032000001200087
:10042000200288000c000700a061200001002000cd
:1004300011000700000020000000e0000200320070
:10044000000002000000000038060200000000006a
:100450000040da000000fe004440a9000000200037
:100460000000e0000300320000002000a00188002e
:100470004440a80000000600910188008000780038
:100480000000eb0015003700e280400032a0b4000d
:100490009101ba00e280400032a0b4009102ba009b
:1004a000e280400032a0b4000002eb00472bde00e7
:1004b000f507b200602ce10004003a000059eb009f
:1004c0008301e900fdff3e00040037006128e100e0
:1004d000010032000082eb00040007001101ba00a5
:1004e0000200e000e8ff3a00000006003159ba00bf
:1004f0008301e9000c0032002159ba008301e900b0
:10050000080032000400e00003003a00e2804000ee
:1005100032a0b400f5ff370011d9ba008301e90019
:10052000faff3a008100e800e180400032a0b40008
:0c053000000006000040da000000fe00a1
:020000040000fa
:020000040001f9
:0457f8009ff8000016
:020000040000fa
:020000040001f9
:0457fc007f3f0000eb
:020000040000fa
:100008009a0200009a0200009a0200009a02000078
:100018009a0200009a0200009a0200009a02000068
:100028009a0200009a0200009a020000cc02000026
:100038009a0200009a0200009a020000b40400002c
:100048009a0200009a0200009a0200009a02000038
:100058009a0200009a0200009a0200009a02000028
:100068009a0200009a0200009a0200009a02000018
:100078009a0200009a0200009a0200009a02000008
:100088009a0200009a0200009a0200009a020000f8
:100098009a0200009a0200009a0200009a020000e8
:1000a8009a0200009a0200009a0200009a020000d8
:1000b8009a0200009a0200009a0200009a020000c8
:1000c8009a0200009a0200009a0200009a020000b8
:1000d8009a0200009a0200009a0200009a020000a8
:1000e8009a0200009a0200009a0200009a02000098
:1000f8009a0200009a0200009a0200009a02000088
:100108009a0200009a0200009a0200009a02000077
:100118009a0200009a0200009a0200009a02000067
:100128009a0200009a0200009a0200009a02000057
:100138009a0200009a0200009a0200009a02000047
:100148009a0200009a0200009a0200009a02000037
:100158009a0200009a0200009a0200009a02000027
:100168009a0200009a0200009a0200009a02000017
:100178009a0200009a0200009a0200009a02000007
:100188009a0200009a0200009a0200009a020000f7
:100198009a0200009a0200009a0200009a020000e7
:1001a8009a0200009a0200009a0200009a020000d7
:1001b8009a0200009a0200009a0200009a020000c7
:1001c8009a0200009a0200009a0200009a020000b7
:1001d8009a0200009a0200009a0200009a020000a7
:1001e8009a0200009a0200009a0200009a02000097
:0801f8009a0200009a020000c7
:020000040000fa
:100208009a0200009a0200009a0200009a02000076
:100218009a0200009a0200009a0200009a02000066
:100228009a0200009a0200009a020000cc02000024
:100238009a0200009a0200009a020000b40400002a
:100248009a0200009a0200009a0200009a02000036
:100258009a0200009a0200009a0200009a02000026
:100268009a0200009a0200009a0200009a02000016
:100278009a0200009a0200009a0200009a02000006
:100288009a0200009a0200009a0200009a020000f6
:100298009a0200009a0200009a0200009a020000e6
:1002a8009a0200009a0200009a0200009a020000d6
:1002b8009a0200009a0200009a0200009a020000c6
:1002c8009a0200009a0200009a0200009a020000b6
:1002d8009a0200009a0200009a0200009a020000a6
:1002e8009a0200009a0200009a0200009a02000096
:1002f8009a0200009a0200009a0200009a02000086
:100308009a0200009a0200009a0200009a02000075
:100318009a0200009a0200009a0200009a02000065
:100328009a0200009a0200009a0200009a02000055
:100338009a0200009a0200009a0200009a02000045
:100348009a0200009a0200009a0200009a02000035
:100358009a0200009a0200009a0200009a02000025
:100368009a0200009a0200009a0200009a02000015
:100378009a0200009a0200009a0200009a02000005
:100388009a0200009a0200009a0200009a020000f5
:100398009a0200009a0200009a0200009a020000e5
:1003a8009a0200009a0200009a0200009a020000d5
:1003b8009a0200009a0200009a0200009a020000c5
:1003c8009a0200009a0200009a0200009a020000b5
:1003d8009a0200009a0200009a0200009a020000a5
:1003e8009a0200009a0200009a0200009a02000095
:0803f8009a0200009a020000c5
:020000040000fa
:10053c000000fa0005e1a90005a1a9000441a900e9
:10054c0004c1a9000421a900240880000440a000d3
:10055c000450a10024088800843821001408880065
:10056c002405800004c0a00004d0a10004e0a10078
:10057c00240588000002eb00040888008460a900b0
:10058c009460a8000080fa00000006003600f80015
:10059c00809fbe00829fbe00849fbe00869fbe00cf
:1005ac003400f80000002000a00188000000fa00d0
:1005bc008460a900080007000080fa003400f900ec
:1005cc004f03be004f02be004f01be004f00be00e5
:1005dc003600f900004006000000fa00844280005a
:1005ec000402e80084428800854280002403200035
:1005fc00848f520002003e00cd62a8000c00370030
:10060c008542800024032000848f520006003600af
:10061c008542800044062000848f520002003e0078
:10062c00cd62a900020037000002eb008442880072
:10063c0024438000e10f52004c003a00c442800079
:10064c00e10f520006003200e20f5200220032008d
:10065c00e00f52007b003a00cd22a9007c0037004d
:10066c00d4428000e00f520006003a00d4428000d1
:10067c000402e800d442880024002000c442880010
:10068c0073003700d4428000e00f52000a0034009f
:10069c00d4428000e30f520007003c00d44280009b
:1006ac0004024200d442880024002000c442880086
:1006bc000000000066003700d4428000e30f5200b7
:1006cc00620034000002eb00d44288000002eb0010
:1006dc00c44288005e003700944280000402e800a7
:1006ec0094428800d4428000450620001100090085
:1006fc008402d800000278008402780094428000c2
:10070c00848f520002003900cd22a800500037001f
:10071c00d442800045062000110009008402d80054
:10072c00000278008402780094428000848f52008a
:10073c000b003100d4428000850c20001100090010
:10074c008402d80000027800840278009442800071
:10075c00848f520002003900cd22a9003c003700e2
:10076c000002eb00944288003900370024438000db
:10077c00e00f520036003a00d4428000e00f5200e5
:10078c0006003a00cd22a9000002eb00944288003a
:10079c0014002000c44288002d003700d442800091
:1007ac00e00f52002a00340014002000c4428800dc
:1007bc00944280000402e80094428800d4428000f5
:1007cc0045062000110009008402d80000027800c0
:1007dc008402780094428000848f52000200390019
:1007ec00cd22a8001a003700d44280004506200014
:1007fc00110009008402d8000002780084027800fd
:10080c0094428000848f52000b003100d44280004f
:10081c00850c2000110009008402d8000002780029
:10082c008402780094428000848f520002003900c8
:10083c00cd22a900060037000002eb00944288008c
:10084c00030037000000000001003700000000002a
:10085c0034438000e10f520004003a00cd42a9005d
:10086c000002eb00a44288002300370034438000d0
:10087c00e00f520020003a00a44280000402e8007d
:10088c00a4428800f4428000ea0f5200190036009e
:10089c00f5428000f43f2000848f520015003e008a
:1008ac00f44280008402d100a4428000848f520064
:1008bc0002003900cd42a8000f003700f44280003e
:1008cc008402d100a4428000848f520006003100c3
:1008dc00a5428000f4428000848f520002003e004a
:1008ec00cd42a900040037000002eb00a4428800ae
:1008fc0001003700cd42a9000080fa00000006007c
:10090c000000fa0011e1a90011a1a9001061a900d1
:10091c0010c1a9001021a900840880000440a00087
:10092c000450a100840888008438210064088800e1
:10093c003405800004c0a10004d0a00004e0a10094
:10094c00340588000002eb003408880084e0a9001c
:10095c0094e0a8000080fa00000006003600f800c1
:10096c00809fbe00829fbe00849fbe00869fbe00fb
:10097c003400f80000002000a00188000000fa00fc
:10098c0084e0a900080007000080fa003400f90098
:10099c004f03be004f02be004f01be004f00be0011
:1009ac003600f900004006000000fa0044438000c5
:1009bc000402e8004443880044438000e30f5200e3
:1009cc002c003400541680004822de006142620084
:1009dc008482fb0024438000848f52000e0032007e
:1009ec00551680000410200004826200e00f5200b3
:1009fc0002003a000002eb002443880055168000e8
:100a0c000410200004826200e00f52000200320049
:100a1c001400200024438800541680004722de0076
:100a2c00614262008482fb0034438000848f520058
:100a3c000e0032005516800004082000048262006b
:100a4c00e00f520002003a000002eb003443880031
:100a5c00551680000408200004826200e00f52004a
:100a6c000200320014002000344388000002eb0026
:100a7c00444388000080fa00000006000000fa00e1
:100a8c0021e3a900c4fe2f006419880021a3a9004a
:100a9c00041980000480a1000490a10004198800ae
:100aac00041980000450a0000460a0000470a00091
:100abc00041988002043a9002023a9002003a900c1
:100acc0028e3a900441980000400a1000410a1002f
:100adc000420a0000430a1004419880025e3a900db
:100aec0025198000f40f2e008482620004e021009e
:100afc00050272002419880044c0b3000443780036
:100b0c0045322000864a78000002eb0084198800e8
:100b1c001419800004d0a00004e0a00004f0a1008f
:100b2c00141988002343a900141980000420a00084
:100b3c000430a1000440a1000450a1001419880045
:100b4c002223a9002203a9000080fa00000006005d
:100b5c000000fa000002eb00e442880004302000a0
:100b6c001443880085a0a9002043a80000000000c1
:100b7c00250480000400220004826200e00f520071
:100b8c00fbff32002043a9000002eb000443880065
:100b9c000a0037001443800014037800e5428000fb
:100bac0085024300e54288000482e8001443880073
:100bbc00044380000402e8000443880004438000de
:100bcc00e10f5200f3ff3600e44280000402d10032
:100bdc00e4428800e4428000f44288000080fa007d
:100bec00000006000000fa004227a9004267a90095
:100bfc00143a8000453a800004fc2f000482620005
:100c0c00443a880081e0a900140280000450a1003d
:100c1c000460a1000470a100140288004460a900c3
:080c2c000080fa000000060040
:020000040000fa
:100c3400500800000c000000000000005c080000e8
:100c44000800000000000000680800000200000026
:100c5400000000006408000004000000020000001e
:0c0c640001000100000000000000000082
:020000040000fa
:100c70000000fa00deff070030fe070023ff070038
:100c80000600070080ff070005e1a80011e1a800a9
:100c900021e3a800b1ff0700feff37000000fa00c3
:100ca000c922a900c942a900c962a900c902a800b5
:100cb000c002a800c022a800c842a8000080fa0014
:040cc000000006002a
:00000001FF
