:020000040000fa
:080000000002040000000000f2
:020000040000fa
:100400002f8620000e7f22000e01880000000000d1
:10041000000020000000e000020032000001200087
:10042000200288000c000700e05820000100200096
:1004300011000700000020000000e0000200320070
:1004400000000200000000007c0502000000000027
:100450000040da000000fe004440a9000000200037
:100460000000e0000300320000002000a00188002e
:100470004440a80000000600910188008000780038
:100480000000eb0015003700e280400032a0b4000d
:100490009101ba00e280400032a0b4009102ba009b
:1004a000e280400032a0b4000002eb00472bde00e7
:1004b000f507b200602ce10004003a000059eb009f
:1004c0008301e900fdff3e00040037006128e100e0
:1004d000010032000082eb00040007001101ba00a5
:1004e0000200e000e8ff3a00000006003159ba00bf
:1004f0008301e9000c0032002159ba008301e900b0
:10050000080032000400e00003003a00e2804000ee
:1005100032a0b400f5ff370011d9ba008301e90019
:10052000faff3a008100e800e180400032a0b40008
:0c053000000006000040da000000fe00a1
:020000040000fa
:020000040001f9
:0457f8009ff8000016
:020000040000fa
:020000040001f9
:0457fc007f3f0000eb
:020000040000fa
:100008009a0200009a0200009a0200009a02000078
:100018009a0200009a0200009a0200009a02000068
:100028009a0200009a0200009a020000cc02000026
:100038009a0200009a0200009a0200009a02000048
:100048009a0200009a0200009a0200009a02000038
:100058009a0200009a0200009a0200009a02000028
:100068009a0200009a0200009a0200009a02000018
:100078009a0200009a0200009a0200009a02000008
:100088009a0200009a0200009a0200009a020000f8
:100098009a0200009a0200009a0200009a020000e8
:1000a8009a0200009a0200009a0200009a020000d8
:1000b8009a0200009a0200009a0200009a020000c8
:1000c8009a0200009a0200009a0200009a020000b8
:1000d8009a0200009a0200009a0200009a020000a8
:1000e8009a0200009a0200009a0200009a02000098
:1000f8009a0200009a0200009a0200009a02000088
:100108009a0200009a0200009a0200009a02000077
:100118009a0200009a0200009a0200009a02000067
:100128009a0200009a0200009a0200009a02000057
:100138009a0200009a0200009a0200009a02000047
:100148009a0200009a0200009a0200009a02000037
:100158009a0200009a0200009a0200009a02000027
:100168009a0200009a0200009a0200009a02000017
:100178009a0200009a0200009a0200009a02000007
:100188009a0200009a0200009a0200009a020000f7
:100198009a0200009a0200009a0200009a020000e7
:1001a8009a0200009a0200009a0200009a020000d7
:1001b8009a0200009a0200009a0200009a020000c7
:1001c8009a0200009a0200009a0200009a020000b7
:1001d8009a0200009a0200009a0200009a020000a7
:1001e8009a0200009a0200009a0200009a02000097
:0801f8009a0200009a020000c7
:020000040000fa
:100208009a0200009a0200009a0200009a02000076
:100218009a0200009a0200009a0200009a02000066
:100228009a0200009a0200009a020000cc02000024
:100238009a0200009a0200009a0200009a02000046
:100248009a0200009a0200009a0200009a02000036
:100258009a0200009a0200009a0200009a02000026
:100268009a0200009a0200009a0200009a02000016
:100278009a0200009a0200009a0200009a02000006
:100288009a0200009a0200009a0200009a020000f6
:100298009a0200009a0200009a0200009a020000e6
:1002a8009a0200009a0200009a0200009a020000d6
:1002b8009a0200009a0200009a0200009a020000c6
:1002c8009a0200009a0200009a0200009a020000b6
:1002d8009a0200009a0200009a0200009a020000a6
:1002e8009a0200009a0200009a0200009a02000096
:1002f8009a0200009a0200009a0200009a02000086
:100308009a0200009a0200009a0200009a02000075
:100318009a0200009a0200009a0200009a02000065
:100328009a0200009a0200009a0200009a02000055
:100338009a0200009a0200009a0200009a02000045
:100348009a0200009a0200009a0200009a02000035
:100358009a0200009a0200009a0200009a02000025
:100368009a0200009a0200009a0200009a02000015
:100378009a0200009a0200009a0200009a02000005
:100388009a0200009a0200009a0200009a020000f5
:100398009a0200009a0200009a0200009a020000e5
:1003a8009a0200009a0200009a0200009a020000d5
:1003b8009a0200009a0200009a0200009a020000c5
:1003c8009a0200009a0200009a0200009a020000b5
:1003d8009a0200009a0200009a0200009a020000a5
:1003e8009a0200009a0200009a0200009a02000095
:0803f8009a0200009a020000c5
:020000040000fa
:10053c000000fa0005e1a90005a1a9000441a900e9
:10054c0004c1a9000421a900240880000440a000d3
:10055c000450a10024088800843821001408880065
:10056c002405800004c0a00004d0a10004e0a10078
:10057c00240588000002eb00040888008460a900b0
:10058c009460a8000080fa00000006003600f80015
:10059c00809fbe00829fbe00849fbe00869fbe00cf
:1005ac003400f80000002000a00188000000fa00d0
:1005bc008460a900080007000080fa003400f900ec
:1005cc004f03be004f02be004f01be004f00be00e5
:1005dc003600f900004006000000fa00844280005a
:1005ec000402e80084428800854280002403200035
:1005fc00848f520002003e00cd62a8000c00370030
:10060c008542800024032000848f520006003600af
:10061c008542800044062000848f520002003e0078
:10062c00cd62a900020037000002eb008442880072
:10063c00551680000410200004826200e00f520066
:10064c004c003200b4428000e10f52000600320030
:10065c00e20f520022003200e00f52007d003a00ff
:10066c00cd22a9007e003700c4428000e00f52006a
:10067c0006003a00c44280000402e800c44288002c
:10068c0024002000b442880075003700c44280006a
:10069c00e00f52000a003400c4428000e30f520005
:1006ac0007003c00c442800004024200c44288009f
:1006bc0024002000b44288000000000068003700cd
:1006cc00c4428000e30f5200640034000002eb00cf
:1006dc00c44288000002eb00b4428800600037007e
:1006ec00944280000402e80094428800c4428000d6
:1006fc0045062000110009008402d8000002780091
:10070c008402780094428000848f520002003900e9
:10071c00cd22a80052003700c442800045062000bc
:10072c00110009008402d8000002780084027800cd
:10073c0094428000848f52000b003100c442800030
:10074c00850c2000110009008402d80000027800fa
:10075c008402780094428000848f52000200390099
:10076c00cd22a9003e0037000002eb009442880025
:10077c003b003700551680000410200004826200f4
:10078c00e00f520036003a00c4428000e00f5200e5
:10079c0006003a00cd22a9000002eb00944288002a
:1007ac0014002000b44288002d003700c4428000a1
:1007bc00e00f52002a00340014002000b4428800dc
:1007cc00944280000402e80094428800c4428000f5
:1007dc0045062000110009008402d80000027800b0
:1007ec008402780094428000848f52000200390009
:1007fc00cd22a8001a003700c44280004506200014
:10080c00110009008402d8000002780084027800ec
:10081c0094428000848f52000b003100c44280004f
:10082c00850c2000110009008402d8000002780019
:10083c008402780094428000848f520002003900b8
:10084c00cd22a900060037000002eb00944288007c
:10085c00030037000000000001003700000000001a
:10086c00551680000408200004826200e00f52003c
:10087c0004003200cd42a9000002eb00a442880023
:10088c001c0037005516800004082000048262000a
:10089c00e00f520017003a00a44280000402e80066
:1008ac00a4428800e44280008402d100a44280006b
:1008bc00848f520002003900cd42a8000d00370091
:1008cc00e44280008402d100a4428000848f520054
:1008dc0006003100a5428000e4428000848f520063
:1008ec0002003e00cd42a900020037000002eb00de
:1008fc00a44288000080fa00000006000000fa0004
:10090c0021e3a900c4fe2f006419880021a3a900cb
:10091c00041980000480a1000490a100041988002f
:10092c00041980000450a0000460a0000470a00012
:10093c00041988002043a9002023a9002003a90042
:10094c0028e3a900441980000400a1000410a100b0
:10095c000420a0000430a1004419880025e3a9005c
:10096c0025198000f40f2e008482620004e021001f
:10097c00050272002419880054c0b30004437800a7
:10098c0045322000864a78000002eb00841988006a
:10099c001419800004d0a00004e0a00004f0a10011
:1009ac00141988002343a90022e3a900141980001c
:1009bc000420a0000430a1000440a1000450a100b8
:1009cc00141988002223a9002203a9000080fa0030
:1009dc00000006000000fa000002eb00d442880080
:1009ec00043020000443880085a0a9002043a800ff
:1009fc000000000025048000040022000482620034
:100a0c00e00f5200fbff32002043a9000002eb0074
:100a1c00f44288000a003700044380001403780075
:100a2c00d542800085024300d54288000482e8004c
:100a3c0004438800f44280000402e800f442880079
:100a4c00f4428000e10f5200f3ff3600d4428000e4
:100a5c000402d100d4428800d4428000e4428800d1
:100a6c000080fa00000006000000fa00143a800032
:100a7c0004c0a10004d0a10004e0a100143a880035
:100a8c0042a7a9004227a900143a80004267a90096
:100a9c00453a800004fc2f0004826200443a88002e
:100aac0081e0a900140280000450a1000460a100a0
:100abc000470a100140288004460a9000080fa00b0
:100acc00000006000000fa00c922a900c942a900d2
:100adc00c962a900c902a800c002a800c022a800cf
:100aec00c842a8000080fa00000006000000fa00ce
:100afc00ddff07008efe0700f2ff07007fff0700f7
:100b0c0005e1a80021e3a800b2ff0700feff3700b3
:020000040000fa
:100b1c00500800000a000000000000005a08000005
:0c0b2c00080000000000000000000000b5
:00000001FF
